:1000000000308A00B92900000A108A100A118207FC
:1000100028340C34013406340A108A100A1182077D
:100020000C34533454344134523454344134203435
:1000300042344134533400340A108A100A118207C2
:100040000C344D344F3454344F3452342034433410
:1000500041344C3449345334493459344F34523494
:1000600000340A108A100A1182070C3400340A1076
:100070008A100A1182074D344F3454344F345234AD
:100080002034433441344C344934533449345934A2
:100090004F34523400340A108A100A118207643433
:1000A00065347634693472343D3425346C347534B7
:1000B00064342F34643400343330840083130008F4
:1000C000031970280130F800F701F70B6528F80BC9
:1000D00064284A30F700F70B6B286E28800B6228E3
:1000E000003439187528061276280616831606126B
:1000F0008312B9187D2886127E28861683168612EA
:1001000083123919852806138628061783160613C5
:100110008312B9198D2886138E28861783168613A5
:100120000330F700F70B92288611831286150630EC
:10013000F700F70B992800008316861183128611A9
:1001400000348316061183120611B6080319AD2870
:100150008316061183120615B12883160611831221
:1001600006110330F700F70BB328831686118312AC
:100170008611370EB8000F30B8053808B900712065
:1001800037080F39B800B900712000348316061102
:100190008312061183168611831286111430B30060
:1001A0005C20A8012808023C031CDE280330B900AB
:1001B00071200F30B3005C20A80AD2280230B900A9
:1001C0007120A8012808033C031CEF2828080420FC
:1001D000A900B6012908B700A120A80AE2288A11BF
:1001E0000A12F52901303302FC3E03180529043EAA
:1001F0000D298030B5000529C030B500052994309F
:10020000B5000529D430B500052901303402B50701
:10021000B6013508B700A12000340A148A100A116B
:100220008207F928FC28FF28022932080C3A031912
:100230002029063A03192A29023A031931293629B5
:10024000B6010130B700A1200130A0000A30B30090
:100250005C203C29A00A0130B3002008B400F22041
:100260003C29B6011030B700A1203C290130B6006E
:100270003208B700A1203C2900341030AC00F7014F
:10028000FA01A90CA80C031C4B292A08F70703182C
:10029000FA0A2B08FA07FA0CF70CF90CF80CAC0B5D
:1002A00041298A110A126D2AB1010408B0003110E7
:1002B000831B31142A0EF038AC00AC07E23EAD00CF
:1002C000323EAF002A080F39AD07AD07AF07E93E50
:1002D000AE00AE07AE07290E0F39AE07AF07AE0D61
:1002E000AF0DAF09AF0D29080F39AF07AC0D0730BF
:1002F000AB000A30AF07AE03031C7A29AE07AD038B
:10030000031C7E29AD07AC03031C8229AC07AB0399
:10031000031C86292B3084008313073030053013EB
:1003200084072F300402031930170008F700031D5B
:10033000A129301BA129301AB329B019A1292030D5
:10034000A429B01530123030F707AA010408A9001B
:100350002A10831B2A147708B2001521290884006B
:1003600083132A188317840A301F91298A110A12CD
:10037000882A840183131F30830583161F149F145A
:100380001F159F1107309C00FF308312A10087309A
:1003900090000030F80004389200F9308316920083
:1003A00083122111210883168700831207110C3054
:1003B000970083161F109F141F159F151F1383127C
:1003C0001F179F1783169F1383121F140030F80006
:1003D0001F08C73978049F001430B3005C209501D2
:1003E0008316081083120810C6283230B3005C2030
:1003F0000130B3000230B400F220A80128080C201C
:10040000A80AF700B20015210B302802031DFE29AF
:10041000831608158312081D112A3230B3005C20A0
:10042000082AA80128081C20003803191B2AA80A3A
:10043000B2001521122A8316081083120814A8018D
:100440002808312000380319292AA80AB2001521EA
:10045000202A1F151F192A2A1E08A7000130B300E1
:10046000B400F220A80128083720A80AF700B2003B
:1004700015210F302802031D332A1E30B3005C20E3
:1004800027089500A301A2018F018E01A60126086D
:10049000093C031C552A3230B3005C2083168815B2
:1004A0008312881DEF29A60A472A0F08FA000E08B2
:1004B000F7000F087A02031D552A7708A4007A086E
:1004C000A5002508A3002408A2002308A9002208EB
:1004D000A800AB010730AA003D297908A3007808DD
:1004E000A2000230B3000130B400F220A8012808B5
:1004F0004B20A80AF700B200152106302802031D80
:10050000772A103084002308AA002208A900542961
:100510006430B20015212F30B20015216430B200D2
:060520001521292A6300E9
:02400E00713F00
:00000001FF
;PIC16F877A
