:10000000AE298030A100FE30FA200130FA20753090
:10001000AD0030305929A101A117B500FE30FA20FA
:100020003508FA28A501B000B101A011250803196F
:10003000A0150530A4002730AF0010302B2003306E
:10004000AF00E8302B20AF0164302B20AF010A3025
:100050002B2030083228AE003108AD003008AC004B
:1000600077212C08AC00A4030319A011250803195B
:100070003C282402031808002C08031DA011A01915
:100080000800303EFA28B300861106118316861147
:1000900006110F30860583123308A0186D283E30F4
:1000A000AD00803059213330B20081201330AD00D3
:1000B00088305921812064305821812064305821B2
:1000C0002230B200812028306C200C306C200630A9
:1000D0006C20A01433086D282014B200201C7B284B
:1000E0000611033C031C802880200530AD00DC3065
:1000F0005921031408002014FE3C03198E2806150C
:10010000201C201086150F3086053208F039860431
:100110008611B20E20188128323058213308A929BF
:100120002016201E2012A01A9928A016CF200318EE
:10013000C42820110830AF00E020AE0DAF0B9C2882
:100140002019A928201AA528F520EF20EB20201A35
:10015000C420F22003102E08CB282016201E2012C7
:10016000201BB728FE39A70020170310CB28A01B9F
:10017000BF28B200A017CF200318C4283208D3200C
:100180000318C428201ECB28F520EF202013A0132D
:10019000A0122011F2203414031C3410A929E820E5
:1001A0002708A01A0138AE000830AF00AE0DF220CB
:1001B0000318DB28F520EF20EB20AF0BD628F22028
:1001C000EF20E2286400031086180314EB200800D7
:1001D000F220EF20F520061083160610F82883166B
:1001E0000614F82883168614F828861083168610BD
:1001F00083120800A11B4328A11C00292118AF2845
:10020000AE00083027190130AF00AE0C2208840080
:100210002608FF3A80058417800526080318800405
:100220003C30582126088004AF0B05290314A92966
:10023000083027190130AF00AE01220884002608DB
:10024000FF3A800584178005260880048413000582
:10025000FF3E271DAE0C2719AE0D32305821AF0BD3
:100260001F292E080314A929A71CA9293A29A70088
:10027000271CA929220884002608FF3A8005841734
:1002800080050130AD00F43059212608800401308A
:10029000AD00F4305929AF01AE00FF30AE07031CAA
:1002A000AF07031CA9290330AD00DF3059214D29C8
:1002B000AD01E83EAC00AD09FC30031C6229AC077F
:1002C00003185F29AC070000AD0F5F292C186829BF
:1002D000AC1C6C2900006C290800013EB3000A30F8
:1002E000AE00AF017721B30B722930080800B101CD
:1002F000B0011030B2002D0DB00DB10D2E08B002BE
:100300002F08031C2F0FB10203188D292E08B007E8
:100310002F0803182F0FB1070310AC0DAD0DB20B52
:100320007B292C08A9291030B700AD01AC01B30C12
:10033000B20C031CA1292E08AC072F0803182F0F9D
:10034000AD07AD0CAC0CB10CB00CB70B9729300855
:10035000A92983138312031300000800A0010730AA
:100360009F000130AF002C304C210120D030AF2055
:100370000730AF201030AD2030260120C3210519F1
:10038000C2291D26BE290530A2000230A600013078
:10039000A7003721CC300021443000210530A200D5
:1003A0000230A6000430A700182101390319621099
:1003B000031D62148D246218DE29CE290530A200A7
:1003C0000230A6000130A7003721CC300021BE301A
:1003D00000210530A2000230A6000230A70018213B
:1003E000DE001821DF0034210B305F02031C0C2AD1
:1003F000031DFE29B9305E02031C0C2A2D30C600F5
:100400005E09A8005F09A90001302807DE0029085D
:100410000318013EDF001E2A0B305F02031C162A60
:10042000031D182AB9305E020318182A2B30C600A3
:100430005F085E04031D1E2A2030C6005E08E0002F
:100440005F08E1000430AC000310E10CE00CAC0BE1
:10045000242A0800302601208030A10080300B20A3
:100460005330432041304320432054304320203038
:100470004320413043205930432041304320523003
:10048000432049304320051E4B2A8519482A702AEB
:1004900005304B21432A302601208030A1008030D6
:1004A0000B205430432041304320523043206930E8
:1004B00043204830432020304320413043205930EE
:1004C0004320413043205230432049304320051E11
:1004D0006F2A85196C2A0C2B05304B21672A2A2A92
:1004E000302601200130D0008030A100C7300B2021
:1004F0005E30432043200130500203190130031DB8
:100500000301BC000130051903013C050319892AC8
:10051000BE030130500203190130031D0301BC006A
:100520000130051A03013C050319972ABE0A02305F
:10053000500203190130031D0301BC0001300519ED
:1005400003013C050319A52ABF0302305002031919
:100550000130031D0301BC000130051A03013C05F5
:100560000319B32ABF0A18303F02031CB82ABF017F
:100570003C303E02031CBD2ABE018030A100843005
:100580000B200230A5003F0813203A3043200230F0
:10059000A5003E0813208519092BD00A023050020D
:1005A000031DDF2A8030A100C4300B205E304320C1
:1005B000432020304320432043203026092B0330A2
:1005C0005002031C092B01208030A10080300B2039
:1005D00053304320413043204320543043202030C7
:1005E0004320413043205930432041304320523092
:1005F00043204C304320413043204E304320443090
:100600004320493043200330AF00E8304C212B25F4
:10061000BC2978304B217B2A302601208030A10074
:10062000CA300B205E30432043200130D00001301F
:1006300005190301BC000130500203190130031DEC
:1006400003013C050319252BC2030130051A0301E0
:10065000BC000130500203190130031D03013C05A9
:100660000319332BC20A013005190301BC00023003
:10067000500203190130031D03013C050319412BEE
:10068000C0030130051A0301BC00023050020319F7
:100690000130031D03013C0503194F2BC00A013033
:1006A00005190301BC000330500203190130031D7A
:1006B00003013C0503195D2BC1030130051A030139
:1006C000BC000330500203190130031D03013C0537
:1006D00003196B2BC10A64304202031C702BC20148
:1006E0004008031D752B0130C0004108031D7A2B03
:1006F0000130C1000D304002031C802B0130C000CE
:1007000003304205A800A9012908280403198A2BEF
:1007100003018B2B0130BC00023040020319013071
:10072000031D03013C05BC001E30410203010318F8
:1007300001303C0503199E2B0130C10003304205F6
:10074000A800A90129082804031D0130BC000230BB
:10075000400203190130031D03013C05BC001D309C
:1007600041020301031801303C050319B92B013084
:10077000C1000130400203190130031D0301BC0018
:100780000330400203190130031D03013C04BC0087
:100790000530400203190130031D03013C04BC0075
:1007A0000730400203190130031D03013C04BC0063
:1007B0000830400203190130031D03013C04BC0052
:1007C0000A30400203190130031D03013C04BC0040
:1007D0000C30400203190130031D03013C040319CE
:1007E000F72B20304102031CF72B0130C1000430ED
:1007F000400203190130031D0301BC000630400212
:1008000003190130031D03013C04BC000930400200
:1008100003190130031D03013C04BC000B304002EE
:1008200003190130031D03013C0403191D2C1F3063
:100830004102031C1D2C0130C1008030A100843016
:100840000B200230A500410813202F304320023036
:10085000A500400813202F3043200230A500420895
:1008600013208519892C01305002031D462C0230BB
:10087000D0008030A100C7300B205E3043204320E1
:1008800020304320432043203026892C0230500260
:10089000031D592C0330D0008030A100C4300B2040
:1008A0005E30432043202030432043204320302625
:1008B000892C03305002031D892C0130D000012007
:1008C0008030A10080300B20543043204130432041
:1008D00052304320693043204830432020304320A9
:1008E000413043205930432041304320523043208F
:1008F0004C304320413043204E304320443043208D
:10090000493043208E2530260330AF0084304C21FF
:10091000BC2996304B21172BBC29CD248030A10057
:1009200080300B200230A5003F0813203A304320CE
:100930000230A5003E0813203A3043200230A500C3
:100940003D0813208B300B20460843200230A500C1
:100950006108B1006008B0001520DF30432043304B
:100960004320C0300B200230A500410813202F3057
:1009700043200230A500400813202F30432032309E
:100980004320303043200230A5004208132085194F
:10099000CA2C2A2A64304B210800D030AF20030132
:1009A000AF2090202E08C90090202E08CA00902069
:1009B0002E08CB0090202E08CC0090202E08CD00D1
:1009C00090202E08CE0090202E08CF00C8010730BE
:1009D000480203181E2DB9010A30B8004808493EE4
:1009E00084000008AA00BB012A08BA000430AC0049
:1009F0000310BB0CBA0CAC0BF82C3908B300380848
:100A0000B2003B08AF003A08AE009321B8003108AD
:100A1000B9004808493E84000008AB00BB012B0820
:100A2000BA000F30BA05BB0138083A07A8004808D9
:100A3000493E840028088000C80FE72C4908BD0003
:100A40004A08BE004B08BF004D08C1004E08C00058
:100A50004F08C2000800B9011030B800BB013E08C1
:100A6000BA003B08AD003A08AC0001306D21BB0173
:100A7000BA003908B3003808B2003B08AF003A08A2
:100A8000AE009321B8003108B900BB013E08BA009E
:100A90003B08AD003A08AC00AF010A30AE00772148
:100AA0003108BB003008BA0038083A07BE00B90167
:100AB0001030B800BB013F08BA003B08AD003A084F
:100AC000AC0001306D21BB01BA003908B300380811
:100AD000B2003B08AF003A08AE009321B8003108DD
:100AE000B900BB013F08BA003B08AD003A08AC00B2
:100AF000AF010A30AE0077213108BB003008BA00E0
:100B000038083A07BF00D130AF200301AF200301FE
:100B1000AF203E08AF203F08AD200800B9011030DB
:100B2000B800BB014108BA003B08AD003A08AC0070
:100B300001306D21BB01BA003908B3003808B2009A
:100B40003B08AF003A08AE009321B8003108B90065
:100B5000BB014108BA003B08AD003A08AC00AF0148
:100B60000A30AE0077213108BB003008BA003808DF
:100B70003A07C100B9011030B800BB014008BA0003
:100B80003B08AD003A08AC0001306D21BB01BA0052
:100B90003908B3003808B2003B08AF003A08AE008D
:100BA0009321B8003108B900BB014008BA003B08E6
:100BB000AD003A08AC00AF010A30AE007721310831
:100BC000BB003008BA0038083A07C000B90110303D
:100BD000B800BB014208BA003B08AD003A08AC00BF
:100BE00001306D21BB01BA003908B3003808B200EA
:100BF0003B08AF003A08AE009321B8003108B900B5
:100C0000BB014208BA003B08AD003A08AC00AF0196
:100C10000A30AE0077213108BB003008BA0038082E
:100C20003A07C200D130AF200430AF204108AF20D6
:100C30004008AF204208AD200800D130AF200301AA
:100C4000AF200301AF200301AF200301AF2001302B
:100C5000AF200130AF200130AF200301AD200800EC
:100C600046304B21013085190301BC000130051AC3
:100C700003013C04BC000130051903013C040319C5
:0E0C8000442EC8305821322E08006300452E45
:02400E00223F4F
:00000001FF
