:1000000000308A0019280000223084008313000881
:10001000031918280130F800F701F70B0D28F80B29
:100020000C284A30F700F70B13281628800B0A28F3
:100030000034840183131F30830583161F149F141B
:100040001F159F1107309C00FF308312A0008316FC
:100050008601831286010030A00083168701831277
:100060008701831688018312880183160911831280
:1000700009118316861383128617831606118312BD
:1000800006158316881283128816201220088316FC
:10009000870083120716831606128312061683162C
:1000A0008813831288172013200883168700831271
:1000B00007178316091183120915831688108312F6
:1000C0008814A01120088316870083128715183022
:1000D000A100FA30A2000420A10B6928831609119F
:1000E0008312091120102008831687008312071439
:1000F0000630A100FA30A2000420A10B7A282010BB
:1001000020088316870083120710831609118312B3
:1001100009150630A100FA30A2000420A10B8B289B
:10012000A011200883168700831287112011200850
:1001300083168700831207150430A100FA30A2004D
:100140000420A10B9E28201120088316870083120B
:100150000711A010200883168700831287148316C6
:100160008811831288150430A100FA30A2000420FF
:10017000A10BB5288316881183128811201220083C
:10018000831687008312071283160811831208153D
:100190001030A100FA30A2000420A10BCA282013BD
:1001A00020088316870083120713A01220088316E5
:1001B0008700831287168316091083120914831689
:1001C00089148312891CDF288316091083120910F1
:1001D000A01220088316870083128712201320089C
:1001E00083168700831207170630A100FA30A20099
:1001F0000420A10BF6288316081183120811831618
:100200008811831288150430A100FA30A20004205E
:10021000A10B05298316881183128811201220084A
:100220008316870083120716831608128312081696
:100230000430A100FA30A2000420A10B1A29831671
:100240000812831208128316881283128812A013D0
:10025000200883168700831287171030A100FA3018
:10026000A2000420A10B2F29831688138312881360
:1002700083160813831208170630A100FA30A20073
:100280000420A10B3E29831608138312081383163A
:100290008813831288170630A100FA30A2000420C8
:1002A000A10B4D29A0132008831687008312871302
:1002B00083160812831208160430A100FA30A20037
:1002C0000420A10B5E2983160812831208128316DC
:1002D00088128312881683168610831286140430BF
:1002E000A100FA30A2000420A10B71298316861008
:1002F00083128610831606118312061183160610C8
:10030000831206141030A100FA30A2000420A10BC1
:10031000842983160612831206128316861183120D
:1003200086150630A100FA30A2000420A10B932903
:1003300083168611831286118316061283120616FF
:100340000630A100FA30A2000420A10BA2298316D6
:10035000061083120610831686108312861404304A
:10036000A100FA30A2000420A10BB1298316861047
:100370008312861083160611831206158316061340
:10038000831206170430A100FA30A2000420A10B4A
:10039000C429831606138312061383168613831249
:1003A000861383168612831286161030A100FA3047
:1003B000A2000420A10BD72983168810831288106D
:1003C00083160810831208140830A100FA30A20026
:1003D0000420A10BE6298316081083120810831647
:1003E0008810831288140830A100FA30A20004207B
:1003F000A10BF52983168612831286128316061323
:10040000831206170430A100FA30A2000420A10BC9
:10041000042A831606138312061383168613831287
:1004200086172011200883168700831207150430D1
:10043000A100FA30A2000420A10B192A20112008E3
:100440008316870083120711A010200883168700E7
:080450008312871039286300B4
:02400E00713F00
:00000001FF
;PIC16F877A
