:10000000B6013C29A501A400B7172730A300103082
:1000100015200330A300E8301520A301643015201B
:10002000A3010A30152024082028A2002508A100D9
:100030002408A00000212008031DB713B71B0800E7
:10004000303E23280408A7008611861086108316E8
:100050008611861086100F30860583122708B61881
:100060004F283A30A1009830C6203330A6006320D4
:100070001330A1008830C62063206430C52063207F
:100080006430C5202230A600632028304E200C307A
:100090004E2006304E20B61427084F283614A600EE
:1000A000361C5D288610033C031C62286220073042
:1000B000A100D030C620031408003614FE3C0319FA
:1000C00037298614361C361086150F30860526080B
:1000D000F03986048611A60E361863283230C52002
:1000E00003140800B71329080319B7170530A8002F
:1000F0002730A300103088200330A300E830882088
:10010000A30164308820A3010A30882024088F28A6
:10011000A2002508A1002408A00000212008A000BA
:10012000A8030319B71329080319992828020318EB
:1001300008002008031DB713B71B0800303E322902
:1001400083178001840AFF3E031DA12837298316E7
:100150009B001C141A08372983169A001C15553069
:100160009D00AA309D009C149C18B4281C113729AE
:10017000A301A200FF30A207031CA307031C372919
:100180000330A100DF30C620BA28A101E83EA0005C
:10019000A109FC30031CCF28A0070318CC28A00716
:1001A0006400A10FCC282018D528A01CD928000055
:1001B000D92808000310A10CA00CFF3E0318DA2870
:1001C00020083729A2000230F028A2000330F028CE
:1001D000A2000130F028A2000630F028A20005306D
:1001E000A80023082102031DF7282208200204305A
:1001F00003180130031902302805031DFF30372989
:10020000A501A4011030A600210DA40DA50D220802
:10021000A4022308031C230FA50203181629220891
:10022000A40723080318230FA5070310A00DA10D91
:10023000A60B0429200837291030A800A101A0012D
:10024000A70CA60C031C2A292208A00723080318C0
:10025000230FA107A10CA00CA50CA40CA80B20290E
:1002600024083729840031088A003008820083136B
:100270000313831264000800831681178312203051
:1002800084006030A120A03084005030A1202030B4
:1002900084003030A0208316383085008601831218
:1002A00007309F000130DF0006118316061183120C
:1002B0000130A300F430B9205C11FE30232040301F
:1002C0002320063023200930232009302320063044
:1002D0002320003023200030232000302320003052
:1002E0002320FE30232048302320043023200E30EA
:1002F00023200E3023200E3023201F3023200430F3
:1003000023200430232000302320FE30232001301E
:100310002320E5253C08A0003D08A1000130A300F2
:100320009030EB20031D98290530BC00BD01F92554
:100330000A240330DB00C201C301222454245708DD
:10034000C3006B245708C2006B244208CC0043084A
:10035000CD008E246E2264005608013C031DB7298F
:10036000FE3023200230232001302320BD29FE301F
:10037000232002302320203023206430B820053091
:10038000DB00C201C301222454245708C3006B249C
:100390005708C2006B242D25CF2264008519D82967
:1003A00064005F08163C031DD7299929D829132B0F
:1003B0006400051AE52964005F08003C03199929C7
:1003C0005608013CD600642299296430B8200225E1
:1003D00064005C1AF7294C08A0004D08A1004F08E2
:1003E000A3004E08E820031DF7290822052A64000F
:1003F0005C1E052A4C08A0004D08A1004F08A30070
:100400004E08EB20031D052A37220130DF00992911
:100410000515DC145C160130D600FE3023200230B6
:10042000232020302320203023202030232041305F
:1004300023204C30232041302320523023204D30C4
:1004400023202030232041302320433023204930F3
:1004500023204B3023202030232020302320203025
:100460002320DF010330A300E830B9200800051184
:100470005C12D601FE3023200230232020302320BE
:1004800020302320413023204C30232041302320B2
:10049000523023204D302320203023204B30232086
:1004A0004130232050302320413023204C30232062
:1004B000493023202030232020302320DF01033047
:1004C000A300E830B920080064005608003C031D72
:1004D0006B2A05116C2A0515DF010800FE30232068
:1004E0000230232064005C1DA22A2030232020300B
:1004F000232049302320533023204930232020302B
:1005000023203A3023202D3023200230A90059081F
:10051000A400A5012230B000B10172202C302320AC
:100520000130A9005A08A400A5012230B000B10191
:10053000722020302320003023204330232020301D
:10054000232008002030232020302320493023207E
:100550005330232049302320203023203A302320D9
:10056000203023200230A9005908A400A501223020
:10057000B000B10172202C3023200130A9005A08AC
:10058000A400A5012230B000B10172202030232048
:100590000030232043302320203023200800FE3069
:1005A0002320C03023203C08A0003D08A1000A30D1
:1005B000A200A3010021D4003C08A0003D08A10036
:1005C0000A30A200A30100212408D50020302320F6
:1005D000203023204E302320453023204D3023204F
:1005E000203023203A302320203023200230A9005D
:1005F0005D08A400A5012230B000B10172202C30AA
:1006000023200130A9005E08A400A5012230B0001B
:10061000B1017220203023202030232025302320D8
:100620002030232008003230B820FE302320013053
:1006300023201430DF0067236400851A3A2B6400FE
:10064000DC1D372B0130BC020030031C013EBD0213
:100650003C08A0003D08A100FF30A300FF30EE20C1
:10066000031D362B0130BC00BD01DC11582BBC0A28
:100670000319BD0A6400051A582B6400DC1D442BC5
:10068000BC0A0319BD0A582B0130BC020030031C00
:10069000013EBD023C08A0003D08A100FF30A300C0
:1006A000FF30EE20031D582BDC150130BC00BD01CE
:1006B000F9250A30B82064008519642B64005F08AE
:1006C000143C03191B2B99291630DF001B2BFE301D
:1006D00023208030232020302320413023204C3021
:1006E000232041302320523023204D30232020303E
:1006F0002320493023205330232049302320203029
:1007000023204130232059302320413023205230F0
:10071000232049302320FE302320C03023203C08F2
:10072000A0003D08A1000A30A200A3010021D400CE
:100730003C08A0003D08A1000A30A200A30100214E
:100740002408D5006400DC1DCD2B2030232041304F
:1007500023204C30232041302320523023204D30A1
:1007600023203A302320203023202D30232054080A
:1007700002202C3023200130A9005508A400A50137
:100780002230B000B101722020302320003023201D
:100790004330232020302320F42B203023204130ED
:1007A00023204C30232041302320523023204D3051
:1007B00023203A30232020302320203023205408C7
:1007C00002202C3023200130A9005508A400A501E7
:1007D0002230B000B10172202030232000302320CD
:1007E00043302320203023209630B8200800831681
:1007F000051085108312851405100230C5200514DC
:1008000085100230C520051005140230C52085145E
:100810000510080083160510851083128514051035
:10082000D201D3015208A0005308A100A30108304F
:10083000E820031D212C05140510D20A0319D30F3B
:10084000122C08000A24F7238030D200D30183162B
:100850000510851083125B085205B200B3013208FF
:10086000A0003308A1005308A3005208EE20031D86
:100870003B2C85143C2C851005140530C520051033
:100880005208A0005308A100A3010130E220031D7B
:100890004D2C0310D30CD20C2B2C8514051483166D
:1008A0008514831205100800D201D3015208A0005C
:1008B0005308A1004630A3005030E820031D672CE8
:1008C0006400851C6B2CD20A0319D30F562C6400CC
:1008D000851C6B2C5C14D7018030D200D3018316A9
:1008E0008514831205146400851C782C5208D704E3
:1008F00005105208A0005308A100A3010130E22016
:10090000031D862C0310D30CD20C722C8316851079
:100910008312851005140510851408004208A000F4
:100920004308A1000F30A300A030E520031DC82C10
:100930005C154208A03CB2004308031C013E0F3C7A
:10094000B3003208A0003308A1006430A200A30164
:100950000021D9004208A03CB2004308031C013E1C
:100960000F3CB3003208A0003308A1006430A2009D
:10097000A30100212408B2002508B3003208A0001A
:100980003308A1000A30A200A3010021DA00012DE2
:10099000A0304202B2000F30031C013E4302B300FC
:1009A0003208A0003308A1006430A200A301002196
:1009B000D900A0304202B2000F30031C013E4302B6
:1009C000B3003208A0003308A1006430A200A301E4
:1009D00000212408B2002508B3003208A000330823
:1009E000A1000A30A200A3010021DA004208A00001
:1009F0004308A100A3010030EE20031D012DD90101
:100A0000DA0108006400DC1D192D3C08A6003D0831
:100A1000A7000A30A200A3011C21B2002508B300E0
:100A20003208A03CCE003308031C013E0F3CCF002F
:100A30002C2D3C08A6003D08A7000A30A200A30107
:100A40001C21B2002508B300A0303207CE000F30C1
:100A50000318013E3307CF0008005908A600A7017C
:100A60000A30A200A3011C21B2002508B3005A08D5
:100A70003207C40033080318013EC500C230A60087
:100A8000D530A7004208A2004308A3001C2120087B
:100A9000B2002108B3004208B20743080318013E20
:100AA000B3073208AE3CB2003308031C013E673C7A
:100AB000B3003208A6003308A7004208A20043088A
:100AC000A3001C212008B2002108B3002830320204
:100AD000C6000030031C013E3302C7004208A600D6
:100AE0004308A7000530A200A3011C21B20025087D
:100AF000B3008F30B20702300318013EB30742083B
:100B0000A6004308A7002D30A2003E30A3001C2100
:100B10002008B4002108B50032083407C8003308A3
:100B20000318013E3507C900B0304407B200093050
:100B30000318013E4507B3004808A6004908A7006E
:100B40003208A2003308A3001C212008B2002108AB
:100B5000B3004808A6004908A700AA30A2000A303E
:100B6000A3001C212008B4002108B500340832027B
:100B7000B4003508031C013E3302B50034084607B3
:100B8000CA0035080318013E4707CB004A08A000F9
:100B90004B08A1000A30A200A3010021DD004A0891
:100BA000A0004B08A1000A30A200A30100212408E4
:100BB000DE004208A0004308A100A3010030EE209F
:100BC000031DE42DDD01DE0108000830A720BC0074
:100BD0001430B8200930A720BD001430B8200A30E6
:100BE000A72001390319DC11031DDC150A30B820D8
:100BF0000800831608309B0083123C08AC20143098
:100C0000B820831609309B0083123D08AC201430B5
:100C1000B82083160A309B0083120030DC190130A3
:0C0C2000AC200A30B82008006300142E3D
:02400E00543F1D
:104240005400450052004D004F004D004500540001
:104250002000200056002E003100300020002000F9
:0242600020003C
:00000001FF
