:1000000000308A00BC2800000A108A100A118207FA
:100010003F3406345B344F3466346D347D340734FA
:100020007F346F342708F801260203181A2826089F
:10003000F7002628F7010830A800A60DF70D2708BD
:1000400077020318F700F80DA80B1D2800342608C6
:1000500004200139031D2E2886102F2886148316AC
:1000600086108312260804200239031D392806133E
:100070003A2806178316061383122608042004392B
:10008000031D4428061245280616831606128312FD
:10009000260804200839031D4F288612502886168A
:1000A000831686128312260804201039031D5A284D
:1000B00006115B28061583160611831226080420F4
:1000C0002039031D652806106628061483160610BD
:1000D0008312260804204039031D702886137128D6
:1000E0008617831686138312003426308400831308
:1000F0000008031989280130F800F701F70B7E2862
:10010000F80B7D284A30F700F70B84288728800BEE
:100110007B2800342208A6000A30A70012207708A6
:10012000A3002208A6000A30A70012207808A40025
:10013000A5012508313C031CBB2883160511831239
:1001400005112308A60027200530A6007520831678
:100150000511831205158316851183128511240854
:10016000A60027200530A60075208316851183126E
:100170008515A50A9928CC28840183131F3083058F
:1001800007309F00831685148312851CC228143003
:10019000A1002108A2008A282108A103003A031D1A
:1001A000C92883160511831205158316851183123C
:1001B000851583160510831205141430A6007520CA
:0A01C000831605148514C32863009C
:02400E00503F21
:00000001FF
;PIC16F628
