:1000000000308A00D22900000A108A100A118207E3
:1000100028340C34013406340A108A100A1182077D
:100020000C344134443449342D3453344F3459342E
:1000300041344434493400340A108A100A118207CA
:100040000C344234413453344C34413454344D3400
:1000500041344B3420346934433469344E340034F1
:100060000A108A100A11820720344234553454345D
:100070004F344E34413420344234413453344934C3
:100080004E3449345A342034203400340A108A1053
:100090000A1182070C3469345934693420344534E8
:1000A00047344C3445344E34433445344C34453471
:1000B00052342034203400340A108A100A11820786
:1000C0000C3448344F344D3445342034203400341B
:1000D0000A108A100A1182074F34503450344F34BA
:1000E00053346934543445342034203400342A30B5
:1000F00084008313000803198B280130F800F701EE
:10010000F70B8028F80B7F284A30F700F70B86287A
:100110008928800B7D2800343018902806129128F9
:100120000616831606128312B0189828861299288C
:1001300086168316861283123019A0280613A1286A
:100140000617831606138312B019A8288613A92848
:100150008617831686130330F700F70BAD28861138
:10016000831286150630F700F70BB42800008316BB
:10017000861183128611003483160611831206112C
:10018000AD080319C8288316061183120615CC285A
:1001900083160611831206110330F700F70BCE28E1
:1001A00083168611831286112E0EAF000F30AF0515
:1001B0002F08B0008C202E080F39AF00B0008C2023
:1001C00000348316061183120611831686118312DA
:1001D00086111430AA007720A3012308023C031CD7
:1001E000F9280330B0008C200F30AA007720A30A32
:1001F000ED280230B0008C20A3012308033C031C2F
:100200000A2923080420A400AD012408AE00BC2064
:10021000A30AFD288A110A12E32901302A02FC3EB2
:1002200003182029043E28298030AC002029C03042
:10023000AC0020299430AC002029D430AC00202917
:1002400001302B02AC07AD012C08AE00BC200034FD
:100250000A148A100A118207142917291A291D293C
:1002600029080C3A03193B29063A03194529023A91
:1002700003194C295129AD010130AE00BC200130D9
:10028000A0000A30AA0077205729A00A0130AA004E
:100290002008AB000D215729AD011030AE00BC2065
:1002A00057290130AD002908AE00BC205729003481
:1002B0002A08F8012902031860292908F7006C2987
:1002C000F7010830AB00A90DF70D2A0877020318D3
:1002D000F700F80DAB0B632900342030241E3030BA
:1002E000A5002308F700A31F7C29F709F70A770860
:1002F000A3002D30A500A4172308A9006430AA008C
:1003000058217708A30030307807A6002308A900F9
:100310000A30AA00582130307707A800303078071B
:10032000A7002508F700A41D9729A41F2411241A4B
:10033000A429A41FBF292419BF297708A600A4183F
:10034000BF297708A700BF2930302602031DBF2927
:100350007708A6002030A500A41DB2292411A414FA
:10036000A41FA41030302702031DBF297708A7005F
:100370002030A600A41DB229A410A41F2410241DFF
:10038000C4292508A9003021A41CC9292608A900D0
:100390003021241CCE292708A90030212808A900D3
:1003A00030210034840183131F30830583161F140A
:1003B0009F141F159F118312A101A20183168601AC
:1003C00083128601E128A30123080C20A30AF70069
:1003D000A90030210B302302031DE4290C30A300B7
:1003E000FA30AA007720A30BF029A30123081C20D0
:1003F000A30AF700A90030210F302302031DF629BC
:100400000330A4002030A9003021A40B022A0230BE
:10041000AA000130AB000D21A30123083020A30A5C
:10042000F700A900302111302302031D0D2A831685
:1004300005148312051C242A0230A3009630AA005A
:100440007720A30B1E2A252A172AA301230846205A
:10045000A30AF700A900302111302302031D262A28
:100460000430A300FA30AA007720A30B322A01300F
:10047000AA00AB000D21A30123085C20A30AF7000A
:10048000A900302107302302031D3C2A0430A300B9
:10049000FA30AA007720A30B482A0130AA000830BE
:1004A000AB000D21A30123086820A30AF700A900CF
:1004B00030210A302302031D532A0430A300FA30EE
:1004C000AA007720A30B5F2A0230AA000130AB00FC
:1004D0000D212108A3000130A4006D210230A300EA
:1004E000FA30AA007720A30B702A0230AA000B3042
:1004F000AB000D212208A3000130A4006D2183165A
:1005000085148312851C8C2A0230A3009630AA0021
:100510007720A30B862A9E2A831605158312051DB4
:10052000922AB12A831685158312851D982AE12AFD
:10053000831605168312051E9E2AFA2AA10A023086
:10054000AA000130AB000D212108A3000130A40056
:100550006D210230A300FA30AA007720A30BAB2A4A
:10056000252A0230A3009630AA007720A30BB32AD5
:10057000A1030230AA000130AB000D212108A30025
:100580000130A4006D210230A300FA30AA007720C8
:10059000A30BC52AFF30A100A1080319E12AA1017C
:1005A0000230AA000130AB000D212108A300013068
:1005B000A4006D210230A300FA30AA007720A30B1B
:1005C000DC2A0230A3009630AA007720A30BE32A8E
:1005D000A20A0230AA000130AB000D212208A300BC
:1005E0000130A4006D210230A300FA30AA00772068
:1005F000A30BF52A0230A3009630AA007720A30BA4
:10060000FC2AA2030230AA000130AB000D2122080F
:10061000A3000130A4006D210230A300FA30AA002B
:100620007720A30B0E2BFF30A100A10803192A2B62
:10063000A1010230AA000130AB000D212208A30065
:100640000130A4006D210230A300FA30AA00772007
:06065000A30B252B630043
:02400E00713F00
:00000001FF
;PIC16F877
