:1000000000308A00C52B00000A108A100A118207EE
:1000100028340C34013406340A108A100A1182077D
:100020000C3400340A108A100A1182074F345934F4
:1000300055344E342034533400340A108A100A11D7
:10004000820752344534533469344E3469340034B1
:100050000A108A100A11820747346934523469340D
:100060004E3469345A3400340A108A100A11820757
:100070005E345E3400340A108A100A1182075E343E
:100080005E3420342034203400340A108A100A11DF
:1000900082074F34593455344E3455342034423469
:1000A000413453344C344134543400340A108A10EF
:1000B0000A1182074F34593455344E3420345434A5
:1000C00041344D3441344D344C3441344E34443455
:1000D000493400340A108A100A11820731342E3450
:1000E00053344B344F34523420343D34203425348F
:1000F000753400340A108A100A11820732342E3403
:1001000053344B344F34523420343D34203425346E
:1001100075340034353084008313000803199E2899
:100120000130F800F701F70B9328F80B92284A30BA
:10013000F700F70B99289C28800B902800343B1877
:10014000A3280612A4280616831606128312BB18CB
:10015000AB288612AC2886168316861283123B19AA
:10016000B3280613B4280617831606138312BB1987
:10017000BB288613BC288617831686130330F70026
:10018000F70BC0288611831286150630F700F70B8F
:10019000C728000083168611831286110034831647
:1001A000061183120611B8080319DB2883160611FD
:1001B00083120615DF2883160611831206110330F9
:1001C000F700F70BE1288316861183128611390E8A
:1001D000BA000F30BA053A08BB009F2039080F3922
:1001E000BA00BB009F20003483160611831206114B
:1001F00083168611831286111430B5008A20AC0153
:100200002C08023C031C0C290330BB009F200F303C
:10021000B5008A20AC0A00290230BB009F20AC0147
:100220002C08033C031C1D292C080420AD00B80138
:100230002D08B900CF20AC0A10298A110A12D72B39
:1002400083160914891483128A110A12D82B0130DB
:100250003502FC3E03183A29043E42298030B7009B
:100260003A29C030B7003A299430B7003A29D4303F
:10027000B7003A2901303602B707B8013708B9008C
:10028000CF2000340A148A100A1182072E2931293E
:100290003429372934080C3A03195529063A031929
:1002A0005F29023A031966296B29B8010130B900A8
:1002B000CF200130A0000A30B5008A207129A00AA1
:1002C0000130B5002008B60027217129B80110308F
:1002D000B900CF2071290130B8003408B900CF200F
:1002E000712900342C08F83E03189029083EAE29E5
:1002F0004030AC0090294830AC0090295030AC0020
:1003000090295830AC0090296030AC0090296830BA
:10031000AC0090297030AC0090297830AC00902966
:10032000B8012C08B900CF202D08B4004A212E08AE
:10033000B4004A212F08B4004A213008B4004A21F1
:100340003108B4004A213208B4004A213308B4000D
:100350004A21B4014A218A110A12EC2B0A148A108C
:100360000A11820778297B297E29812984298729F6
:100370008A298D295030B5008A202B152B08831629
:1003800087008312071DBD29AB142B088316870035
:100390008312871CBD292B142B0883168700831218
:1003A000071CBD29AB152B08831687008312871DF8
:1003B000BD29831688148312881CBD29831608144E
:1003C0008312081CBD29831688158312881DBD2938
:1003D000831608158312081DBD292B162B088316BA
:1003E00087008312071EBD2900343008F8012F0250
:1003F0000318FD292F08F700092AF7010830B1007A
:10040000AF0DF70D300877020318F700F80DB10BA8
:10041000002A003478082D08AF006430B000F521C0
:100420007708AD0078083030031D1D2AAE1C242A41
:10043000AE19242A2E1A2030202AAE112E122E1484
:10044000F8077808B4004A212D08AF000A30B00040
:10045000F5217708AD0078083030031D352AAE1934
:10046000392A2E1C392A2E1A2030F8077808B400B1
:100470004A213030AD072D08B4004A210034F7017D
:10048000F801300803103118F707F70CF80CB11811
:10049000F707F70CF80C3119F707F70CF80CB1193E
:1004A000F707F70CF80C311AF707F70CF80CB11A2C
:1004B000F707F70CF80C311BF707F70CF80CB11B1A
:1004C000F707F70CF80C00340830F80000000910AA
:1004D0008316091000008312AF0D8910031C732AC4
:1004E0008316891483120318782A831689108312BD
:1004F000831609148312091C7B2AF80B662A000054
:100500000910831609100000891400000000091466
:100510008312091C892AF80100008918781409102F
:1005200083160910831289108316891083120034F0
:1005300083168914000009140000831289108316A1
:10054000891000008312091083160910D03083121D
:10055000AF00642278087818AF2A2E10B02A2E1423
:1005600083168910000009148312091CB52A0000A3
:10057000B92A0000831689140000003083122E1C53
:100580000130F80000349822F8080319C32A8316B2
:100590008914000009140000831289108316891041
:1005A00000008312091083160910D0308312AF00A7
:1005B00064222C08AF0064222D08AF006422831649
:1005C0008910000009148312091CE42A0000E82A9B
:1005D0000000831689140000831200349822F80862
:1005E0000319EE2A831689140000091400008312EF
:1005F00089108316891000008312091083160910D0
:10060000D0308312AF0064222C08AF00642283161E
:1006100089140000091400008312091C0D2B891095
:100620008316891000008312091083160910D13037
:100630008312AF006422F7010830AF007708B000E2
:1006400083168914000009148312091C252B8918AC
:100650000314891C0310F80D00008316091083127F
:100660000910AF0B202B8316891400008312891008
:10067000300803193E2B831689108312000083165D
:1006800009148312091C422B00000910831609105B
:100690000000831289108316891078088312AD0038
:1006A00083168910000009148312091C552B0000C1
:1006B000592B000083168914000083122D08F800BE
:1006C00000342C080F39AE002C0EF7000F30F70560
:1006D0007708AF000A30B0007708B1003F227808F1
:1006E0002E07AD002D08F80000340230AC00EE22D9
:1006F0007808A3000130AC00EE227808A400AC0119
:10070000EE227808A5002308AC0061237808A30036
:100710002408AC0061237808A4002508AC006123FC
:100720007808A5002308B0003C30B1003F22AA01A0
:100730007808A9002408A9070318AA0A28082A0289
:10074000031CAA2B031DA82B27082902031CAA2B74
:100750000130A6000130B5000530B600272123087E
:10076000AD000130AE000A223A30B4004A2124081C
:10077000AD000130AE000A223A30B4004A2125080B
:10078000AD000130AE000A220034840183131F3013
:10079000830583161F149F141F159F1107309C009B
:1007A000FF308312AB00C830B5008A20F42820291E
:1007B0006430B5008A20AB122B08831687008312A1
:1007C0008712AC011130AD00AE01AF00B000B10036
:1007D000B2000E30B3007229AC012C080C20003896
:1007E0000319F62BAC0AB4004A21ED2BAC012C08FE
:1007F000122000380319002CAC0AB4004A21F72B50
:10080000B4014A21AC012C081D20003803190C2C1E
:10081000AC0AB4004A21032C0230B5000130B60006
:100820002721AC012C082820003803191B2CAC0A06
:10083000B4004A21122CBA21831688158312881914
:100840001C2CBA21AC012C080C20003803192C2CCC
:10085000AC0AB4004A21232CA301A4010230B50044
:100860000830B6002721AC012C08342000380319C9
:100870003D2CAC0AB4004A21342C8316881583120F
:10088000881D682C831608158312081DA40A2B16D0
:100890002B08831687008312071EA40324083B3C01
:1008A000031CA4010130B5000530B6002721230840
:1008B000AD000130AE000A223A30B4004A212408CB
:1008C000AD000130AE000A229630B5008A203D2CE2
:1008D000BA210230B5000530B6002721AC012C0842
:1008E0003B2000380319782CAC0AB4004A216F2C45
:1008F000831688158312881DA32C8316081583126E
:10090000081DA30A2B162B08831687008312071EC7
:10091000A3032308173C031CA3010130B5000530D5
:10092000B60027212308AD000130AE000A223A307C
:10093000B4004A212408AD000130AE000A229630EE
:10094000B5008A20782C2308B0003C30B1003F224B
:10095000A8017808A7002408A7070318A80AAC0173
:100960002C080C2000380319B92CAC0AB4004A2119
:10097000B02CAC012C08452000380319C32CAC0A5C
:10098000B4004A21BA2CBA2183168815831288191B
:10099000C42CBA21A101A201A601AC01AD01C32260
:1009A0000130AC00AD01C3220230AC00AD01C32266
:1009B000AC012C080C2000380319E22CAC0AB4005E
:1009C0004A21D92C831688158312881D862DA608E6
:1009D000031D862D2B152B08831687008312071DF8
:1009E000A10AAB142B08831687008312871CA10170
:1009F0002B142B08831687008312071CA1032108E0
:100A0000633C031CA101AB152B08831687008312DE
:100A1000871DA20A831688148312881CA2018316DC
:100A200008148312081CA2032208633C031CA201C1
:100A30000230B5000130B60027212208AD00013098
:100A4000AE000A220230B5000F30B600272121087F
:100A5000AD000130AE000A222B152B08831687004B
:100A60008312071D522DAB142B08831687008312A7
:100A7000871C522D2B142B08831687008312071C0A
:100A8000522DAB152B08831687008312871D522D1C
:100A9000831688148312881C522D8316081483121F
:100AA0000818812D5030B5008A202B152B0883168D
:100AB00087008312071D7B2DAB142B08831687003C
:100AC0008312871C7B2D2B142B088316870083121F
:100AD000071C7B2DAB152B08831687008312871DFF
:100AE0007B2D831688148312881C7B2D8316081493
:100AF00083120818802D75233230B5008A20552DB9
:100B0000BA2175236430B5008A20E22CBA21AC01E9
:100B10002C080C2000380319912DAC0AB4004A218E
:100B2000882DAC012C085620003803199B2DAC0AE7
:100B3000B4004A21922D831688158312881DAF2D8B
:100B4000AB122B08831687002030831287060230F1
:100B5000AC009630B5008A20AC0BA92D9B2DAB12B2
:100B60002B088316870083128712AC012C080C20F7
:100B700000380319BF2DAC0AB4004A21B62DAC01D0
:100B80002C086A20AC0AF700B4004A2109302C0274
:100B9000031DC02D2208AD001B30AE000A2202301A
:100BA000B5000130B6002721AC012C087A20AC0A30
:100BB000F700B4004A2109302C02031DD52D21086D
:100BC000AD001B30AE000A22BA21831688158312AD
:0A0BD0008819E52DBA21EC2B630013
:02400E00713F00
:00000001FF
;PIC16F877A
