:1000000008308A00002800000A108A100A118207AE
:1000100028340C34013406340A108A100A1182077D
:100020000C3400340A108A100A1182070C3444344C
:1000300056343D342534663400340A108A100A11CF
:10004000820748344134463449345A3441345934AF
:100050004134203441344C3449344E3444344934EE
:1000600000340A108A100A1182070C3448344134D3
:10007000463449345A3441342034533469344C348E
:1000800069344E344434693400346330840083135B
:100090000008031959280130F800F701F70B4E2822
:1000A000F80B4D284A30F700F70B54285728800BDF
:1000B0004B28003469185E2806125F28061683163E
:1000C00006128312E9186628861267288616831698
:1000D0008612831269196E2806136F280617831675
:1000E00006138312E9197628861377288617831654
:1000F00086130330F700F70B7B28861183128615D1
:100100000630F700F70B8228000083168611831251
:10011000861100348316061183120611E6080319AE
:10012000962883160611831206159A28831606113F
:10013000831206110330F700F70B9C2883168611F3
:1001400083128611670EE8000F30E8056808E900A1
:100150005A2067080F39E800E9005A200034831656
:10016000061183120611831686118312861114302C
:10017000E3004520CD014D08023C031CC728033095
:10018000E9005A200F30E3004520CD0ABB28023099
:10019000E9005A20CD014D08033C031CD8284D0826
:1001A0000420CE00E6014E08E7008A20CD0ACB28C5
:1001B0008A150A124E2801306302FC3E0318EE280D
:1001C000043EF6288030E500EE28C030E500EE2839
:1001D0009430E500EE28D430E500EE2801306402CA
:1001E000E507E6016508E7008A2000340A108A1056
:1001F0000A118207E228E528E828EB2862080C3A71
:1002000003190929063A03191329023A03191A296D
:100210001F29E6010130E7008A200130A0000A30E2
:10022000E30045202529A00A0130E3002008E4006E
:10023000DB202529E6011030E7008A20252901303E
:10024000E6006208E7008A20252900348E30F70096
:100250004E08F8004D08F900FA01F808031D3A2984
:100260007908F800F9010830F702F808031D3A2967
:10027000F70142290310F81B4129F90DF80DF70386
:100280003A29F813003462080319B329EA00660812
:100290000319B329EA07031854297F30EA02031C23
:1002A000B3290319B32958298130EA070318B32960
:1002B0006A08F700F801F901FA016308EE00EE1789
:1002C0006408ED006508EC001830EA00EB016C1CD6
:1002D00081296908FA07031C7329F90A031D732988
:1002E000F80A0319EB176808F907031C7A29F80ABA
:1002F0000319EB176708E400E4176408F80703180C
:10030000EB17EB0DF80CF90CFA0CEE0CED0CEC0CF9
:100310000310EA0B66290130F7070318B329F81B0D
:100320009829EE0DFA0DF90DF80DF7030319B3290D
:10033000EE1FA929FA0A031DA929F90A031DA929F3
:10034000F80A031DA929F80CF90CFA0CF70A03198D
:10035000B3296308EB006708EB06EB1FB129F81718
:10036000B729F813B729F701F801F901FA010034A8
:10037000F701F801F901FA01EA01EB01EC01ED01E5
:1003800069086804670466040319F6292030EE0042
:100390000310E20DE30DE40DE50DEA0DEB0DEC0DA0
:1003A000ED0D69086D02031DDF2968086C02031D4D
:1003B000DF2967086B02031DDF2966086A02031C38
:1003C000F0296608EA026708031C670FEB02680859
:1003D000031C680FEC026908031C690FED0203148B
:1003E000F70DF80DF90DFA0DEE0BC8296A308400EF
:1003F000831300340408DA005908DC000319192AB1
:100400005808E5005708E4005608E3005508E200E4
:10041000E901E8012030E7008230E60043217A0854
:10042000D8007908D7007808D6007708D500DC0B0B
:10043000002A5808E5005708E4005608E30055086C
:10044000E2006208B63CE200FA016308E600E31746
:100450000310E30CE40CE50CFA0CF90CF80CF70CA7
:10046000E20B282AE61F3F2AF709F809F909FA09D9
:10047000F70A0319F80A0319F90A0319FA0A7A089C
:10048000D8007908D7007808D6007708D500D81F9B
:10049000562ADA03DA16D509D609D709D809D50AB2
:1004A0000319D60A0319D70A0319D80A3B30E10009
:1004B0009A30E000CA30DF00DE010A30DC00590863
:1004C0000319DA0A5808E5005708E4005608E30063
:1004D0005508E2006108E9006008E8005F08E700ED
:1004E0005E08E600B8210008D500840A0008D6009E
:1004F000840A0008D700840A0008D800FD30840769
:10050000F708031D962A590A5C020319962A5A080D
:100510000319982A0F395C020319902A0318C82A74
:10052000DA1BC82A5A1B982A2030C42A2030DA0540
:10053000DA1EA62ADA125908031DDA037708DA0050
:100540002D30E200FE205A08F700DA0159085C025B
:10055000031DB42A7708DA002E30E200FE205A0884
:10056000F7002030DA0500303030DA1EC42ADA1203
:100570005908031DDA037708DA002D30E200FE2067
:100580005A08F700DA013030F7077708E200FE205A
:100590006108E5006008E4005F08E3005E08E2002F
:1005A000E901E801E7010A30E600B8217A08E10034
:1005B0007908E0007808DF007708DE00DC0B622AAB
:1005C00000344E08D5005208D506D51FEC2A031179
:1005D0000310CE1B03141F2B4E08D5005108D60064
:1005E0004D08D6020319FA2AD51F1F2B0308013A1A
:1005F00083001F2B5208D6004E08D6020319062B83
:10060000D51F1F2B0308013A83001F2B5308D60068
:100610004F08D6020319122BD51F1F2B0308013ACE
:1006200083001F2B5408D6005008D60203191E2B36
:10063000D51F1F2B0308013A83001F2B0310003422
:1006400051080319E52BDD0055080319E52BDD02E0
:10065000031C2F2B7F30DD070318E52B352B813052
:10066000DD02031CE52B0319E52B5D08F700F801FB
:10067000F901FA01DC015208DB00DB175308DA004C
:100680005408D9001930DD005808D9020318582B36
:100690000130DA020318582BDB020318582BDC0256
:1006A0000318582BDC0ADB0ADA0A5808D9078A2B08
:1006B0005708DA020318732B0130DB020318732B7F
:1006C000DC020318732BDC0ADB0A5708DA07580828
:1006D000D907031C8A2BDA0A031D8A2BDB0A031DA8
:1006E0008A2BDC0A8A2B56088038DB020318892BF8
:1006F0000130DC020318892BDC0A56088038DB073E
:100700005708DA07031C672BDB0A031D672BDC0A7B
:10071000672B7A14DD0B8D2B982B0310D90DDA0D76
:10072000DB0DDC0D0310FA0DF90DF80DDE0D442B79
:100730005E1CA02B0310F80CF90CFA0CDE0CA32B9A
:10074000F7030319E52BDE1BCC2B0310D90DDA0DB3
:10075000DB0DDC0D5808D9020318B82B0130DA0282
:100760000318B82BDB020318B82BDC02031CDB2BAD
:100770005708DA020318C32B0130DB020318C32B1E
:10078000DC02031CDB2B56088038DB020318CC2B61
:100790000130DC02031CDB2BFA0A031DDB2BF90AF8
:1007A000031DDB2BF80A031DDB2BF70A0319E52BCE
:1007B000F80CF90CFA0C5208DD005608DD06DD1FB6
:1007C000E32BF817E92BF813E92BF701F801F901EE
:1007D000FA0100348E30F7005108F7025208F90090
:1007E0005308F800F917F7080319012C0310F9084A
:1007F000031DFD2BF8080319012CF90CF80CF70B5D
:10080000F62BD21F082CF809F909F80A0319F90A7E
:10081000003480308318D606DB01DC015208DA0090
:100820005608DA0651080319F92CD900F7005508C3
:100830000319022DD90203199E2C031C5C2C5608A7
:10084000DF00DF175708DE005808DD00DC01031069
:10085000DF0CDE0CDD0CDC0CD90B262CDA1F332C64
:100860005B14162D5B1059105B16543084008313F3
:100870002B2D5B12DA1B462C591C512CDF0CDE0C85
:10088000DD0CDC0CF70A0319112D512CDF1B542C45
:100890000310DC0DDD0DDE0DDF0DF7030319112D47
:1008A000462C5B17BE2C5B135208DA00DA1F5A2C59
:1008B000DF170A2DDF130A2D5508D900F70051085C
:1008C000D9025208DF00DF175308DE005408DD00AC
:1008D000DC010310DF0CDE0CDD0CDC0CD90B682C0A
:1008E000DA1F752CDB14162DDB105910DB1658306F
:1008F000840083132B2DDB12DA1B882C591C932CBC
:10090000DF0CDE0CDD0CDC0CF70A0319112D932C27
:10091000DF1B962C0310DC0DDD0DDE0DDF0DF70364
:100920000319112D882CDB17BE2CDB135608DA00B7
:10093000DA1F9C2CDF170A2DDF130A2D5608DF0063
:10094000DF175708DE005808DD00DA1FAB2CDF1375
:100950005B15162D5B11DC01591054308400831394
:100960002B2DDA1BD42C5208DA00591CBE2CDF0CBC
:10097000DE0CDD0CDC0CF70A0319112DDC1FCF2C6B
:10098000DD0A031DCF2CDE0A031DCF2CDF0A031D59
:10099000CF2CDF0CDE0CDD0CF70A0319112D5B1BCD
:1009A000532CDB1B952CF32C8030DF06DF1FDC2C57
:1009B000162D5608DA00E92C5208DA00DF08031D6C
:1009C000E92CDE08031DE92CDD08031DE92CF701E5
:1009D0000A2DDF1BF32C0310DC0DDD0DDE0DDF0D0A
:1009E000F70BE92C112DDA1FF72CDF170A2DDF1377
:1009F0000A2D5508F7005608DF005708DE00580892
:100A0000DD000A2D5108F7005208DF005308DE0010
:100A10005408DD005F08F8005E08F9005D08FA0080
:100A2000492DF701F801F901FA01492DDC01DD0931
:100A3000DE09DF09DC09DC0A031D242DDD0A031DA4
:100A4000242DDE0A0319DF0A5B18322CDB18742C04
:100A50005B19AA2CD92C0008DD07031C352DDE0AF2
:100A6000031D352DDF0A0319591484030008DE071E
:100A7000031C3D2DDF0A0319591484030008801F4D
:100A8000803ADF07031859145B1A392CDB1A7B2CC8
:040A9000B12C003451
:10100000840183131F30830583161F149F141F153B
:101010009F1107309C008312A101A201A301A4012A
:10102000A501A601A701A801AB01AC01AD01AE016C
:10103000AF01B001B101B201B301B401B501B60114
:10104000B701B801B901BA01BB01BC01BD01BE01C4
:10105000BF01C001C101C201C301C401C501C60174
:10106000C701C801C901CA01CB01CC01831609140B
:101070008914091586018312860183161F138312B2
:101080001F179F1783169F1783121F1483161F1095
:101090009F141F119F118A118312AF288A150C30DB
:1010A000E2008A11FE208A150230CD009630E3005E
:1010B0008A1145208A15CD0B56280030F8001F08EC
:1010C000C73978049F001030F700F70B652800003F
:1010D0001F151F19692883161E088312A9001E08F0
:1010E000AA002A08CE002908CD008A1126218A15D7
:1010F0000A30E500D730E4002330E3007730E20027
:101100007A08E9007908E8007808E7007708E6003F
:101110008A1143218A157A08C0007908BF0078082F
:10112000BE007708BD002A08CE002908CD008A112C
:1011300026218A150A30E500D730E4002330E30089
:101140007730E2007A08E9007908E8007808E700DB
:101150007708E6008A1143218A157708CD007808C0
:10116000CE007908CF007A08D000E5004F08E400EF
:101170004E08E3004D08E200E901E8017A30E7009B
:101180008830E6008A1143218A157A08C800790858
:10119000C7007808C6007708C5000130E300E40006
:1011A0008A11DB208A154930E2008A11FE208A1557
:1011B0003D30E2008A11FE208A15893084004808FB
:1011C000D8004708D7004608D6004508D5000130AA
:1011D000D9008A11FA218A156D30E2008A11FE20A9
:1011E0008A154130E2008A11FE208A152030E20083
:1011F0008A11FE208A153230E3008A1145208A15B3
:101200001830F8001F08C73978049F001030F70025
:10121000F70B082900001F151F190C2983161E083B
:101220008312A9001E08AA002A08CE002908CD00B2
:101230008A1126218A150A30E500D730E4002330D0
:10124000E3007730E2007A08E9007908E8007808DE
:10125000E7007708E6008A1143218A157708CD0058
:101260007808CE007908CF007A08D000E5004F0852
:10127000E4004E08E3004D08E200E901E801E7015F
:101280008130E6008A1143218A157A08BC0079086A
:10129000BB007808BA007708B9000230E3000B30D1
:1012A000E4008A11DB208A154130E2008A11FE2019
:1012B0008A153D30E2008A11FE208A1589308400AB
:1012C0003C08D8003B08D7003A08D6003908D500BA
:1012D0000130D9008A11FA218A151030F8001F0850
:1012E000C73978049F001030F700F70B752900000C
:1012F0001F151F19792983161E088312A7001E08BF
:10130000A8002808CE002708CD008A1126218A15BA
:101310000A30E500D730E4002330E3007730E20004
:101320007A08E9007908E8007808E7007708E6001D
:101330008A1143218A157A08B8007908B70078081D
:10134000B6007708B5003808E5003708E40036082D
:10135000E3003508E200E901E8014830E7008530A4
:10136000E6008A1143218A157A08B8007908B70087
:101370007808B6007708B50009185E2CC830E3007D
:101380008A1145208A15A40A240B132C3408D00096
:101390003308CF003208CE003108CD00D401D3018C
:1013A0004830D2008730D1008A11E1228A15031813
:1013B000DB29031DF72AB001AF01AC01AB01AE017F
:1013C000AD01A301A20103178D018C0183168C13BB
:1013D0000C15831203130B08F7008B1383160317E6
:1013E00055308D00AA308D008C148C18F5290C1105
:1013F0007708831203138B04013003178D008C01CF
:1014000083168C130C15831203130B08F7008B1330
:101410008316031755308D00AA308D008C148C185C
:101420000F2A0C117708831203138B042708AB00D3
:10143000AC01AD012808AE002E08AD00AE010317C7
:101440008D0103132B0803178C0083168C130C15C6
:10145000831203130B08F7008B1383160317553001
:101460008D00AA308D008C148C18342A0C1177084A
:10147000831203138B04013003178D0003132D080F
:1014800003178C0083168C130C15831203130B089F
:10149000F7008B138316031755308D00AA308D008B
:1014A0008C148C18512A0C117708831203138B04A7
:1014B00003178D0183168C130C1483120C0803136D
:1014C000A300013003178D0083168C130C148312B4
:1014D0000C080313A2002208B0002308AF00300854
:1014E000CE002F08CD008A1126218A157708CD005D
:1014F0007808CE007908CF007A08D000D4004F08D1
:10150000D3004E08D2004D08D100D801D701D60132
:101510008030D5008A1120238A157A08D4007908F2
:10152000D3007808D2007708D1008A11EA238A15FF
:101530007908B0007808AF003008CE002F08CD0041
:101540008A1126218A157708CD007808CE007908FF
:10155000CF007A08D000D10151088A1112208A15D3
:10156000D10AF700E2008A11FE208A1504305102E8
:10157000031DAC2A893084005008D8004F08D700DA
:101580004E08D6004D08D5000230D9008A11FA2144
:101590008A150230E3000130E4008A11DB208A154D
:1015A000CD014D088A111D208A15CD0AF700E200F1
:1015B0008A11FE208A150F304D02031DD12A0430F6
:1015C000CD00FA30E3008A1145208A15CD0BE12ABF
:1015D000CD014D088A110C208A1500380319F62A0E
:1015E000CD0AE2008A11FE208A15E92A132CB001E7
:1015F000AF01AC01AB01AE01AD01A301A201031724
:101600008D018C0183168C130C15831203130B08A8
:10161000F7008B138316031755308D00AA308D0009
:101620008C148C18112B0C117708831203138B0464
:10163000013003178D008C0183168C130C15831257
:1016400003130B08F7008B138316031755308D0017
:10165000AA308D008C148C182B2B0C117708831258
:1016600003138B042508AB00AC01AD012608AE00C6
:101670002E08AD00AE0103178D0103132B080317CD
:101680008C0083168C130C15831203130B08F700C0
:101690008B138316031755308D00AA308D008C14E0
:1016A0008C18502B0C117708831203138B04013014
:1016B00003178D0003132D0803178C0083168C135A
:1016C0000C15831203130B08F7008B1383160317F3
:1016D00055308D00AA308D008C148C186D2B0C1198
:1016E0007708831203138B0403178D0183168C1361
:1016F0000C1483120C080313A300013003178D0090
:1017000083168C130C1483120C080313A2002208F6
:10171000B0002308AF003008CE002F08CD008A119A
:1017200026218A157708CD007808CE007908CF00E9
:101730007A08D000E5004F08E4004E08E3004D08A9
:10174000E200E901E8012030E7008130E6008A117B
:1017500043218A157A08D4007908D3007808D2008A
:101760007708D1008A11EA238A157908B000780831
:10177000AF003008CE002F08CD008A1126218A152F
:101780007708CD007808CE007908CF007A08D0001D
:10179000D10151088A1112208A15D10AF700E200FE
:1017A0008A11FE208A1504305102031DC92B89308D
:1017B00084005008D8004F08D7004E08D6004D08C6
:1017C000D5000230D9008A11FA218A150230E300CF
:1017D0000130E4008A11DB208A15CD014D088A1101
:1017E0001D208A15CD0AF700E2008A11FE208A1515
:1017F0000F304D02031DEE2B0430CD00FA30E30014
:101800008A1145208A15CD0BFE2BCD014D088A117A
:101810000C208A1500380319132CCD0AE2008A1116
:10182000FE208A15062C2408043C031D5E2CA4010E
:1018300003178D018C0183168C130C15831203136F
:101840000B08F7008B138316031755308D00AA3051
:101850008D008C148C182A2C0C117708831203131A
:101860008B04A301AC01AB01AE01AD01A201B0013B
:10187000AF01CD014D088A1131208A15CD0AF7003C
:10188000E2008A11FE208A150F304D02031D3A2C0A
:101890000430CD00FA30E3008A1145208A15CD0BC3
:1018A0004A2C0C30E2008A11FE208A15B401B301E3
:1018B000B201B101B801B701B601B501D001CF0144
:1018C0004830CE008730CD003808D4003708D30028
:1018D0003608D2003508D1008A11E1228A15031892
:1018E000732C031D752C3C2D3C2D0230E300013080
:1018F000E4008A11DB208A153008CE002F08CD00C5
:101900008A1126218A1583143808D4003708D30099
:101910003608D2003508D1007A08D8007908D700F7
:101920007808D6007708D5008A1109248A15770827
:10193000CD007808CE007908CF007A08D000563064
:10194000E2008A11FE208A153D30E2008A11FE2055
:101950008A15893084005008D8004F08D7004E08F7
:10196000D6004D08D5000130D9008A11FA218A1518
:101970006D30E2008A11FE208A155630E2008A118D
:10198000FE208A152030E2008A11FE208A153008D8
:10199000CE002F08CD008A1126218A15831438081D
:1019A000D4003708D3003608D2003508D1007A08B1
:1019B000D8007908D7007808D6007708D5008A11B2
:1019C00009248A157708CD007808CE007908CF0061
:1019D0007A08D0004008E5003F08E4003E08E30034
:1019E0003D08E200E901E8017A30E7008830E600CE
:1019F0008A1143218A155008D4004F08D3004E089D
:101A0000D2004D08D1007A08D8007908D7007808AC
:101A1000D6007708D5008A1120238A157A08C400D9
:101A20007908C3007808C2007708C1000130E300DC
:101A30000C30E4008A11DB208A155230E2008A1152
:101A4000FE208A153D30E2008A11FE208A15893079
:101A500084004408D8004308D7004208D600410853
:101A6000D5000230D9008A11FA218A152030E2000F
:101A70008A11FE208A155D28B801B701B601B501AB
:101A80000830F8001F08C73978049F002130F7009C
:101A9000F70B482D1F151F194B2D83161E08831297
:101AA000A5001E08A6006430E3008A1145208A15AF
:101AB0002608CE002508CD008A1126218A150A3075
:101AC000E500D730E4002330E3007730E2007A0805
:101AD000E9007908E8007808E7007708E6008A114D
:101AE00043218A157A08B4007908B3007808B20057
:101AF0007708B1003408E5003308E4003208E30059
:101B00003108E200E901E8017A30E7008830E600B8
:101B10008A1143218A157A08B4007908B30078083D
:101B2000B2007708B100D001CF017A30CE00883002
:101B3000CD003408D4003308D3003208D200310875
:101B4000D1008A11E1228A150318A82D031D8E2EBB
:101B50003408D4003308D3003208D2003108D10051
:101B6000D801D7017A30D6008830D5008A112023D9
:101B70008A157A08B4007908B3007808B2007708AB
:101B8000B1000230E3000130E4008A11DB208A1545
:101B90003008CE002F08CD008A1126218A1577083B
:101BA000CD007808CE007908CF007A08D000D400A4
:101BB0004F08D3004E08D2004D08D100D801D701FC
:101BC0007A30D6008830D5008A1120238A158314F4
:101BD0003408D4003308D3003208D2003108D100D1
:101BE0007A08D8007908D7007808D6007708D50099
:101BF0008A1109248A157708D1007808D20079085B
:101C0000D3007A08D4005630E2008A11FE208A15EB
:101C10003D30E2008A11FE208A1589308400540884
:101C2000D8005308D7005208D6005108D500033019
:101C3000D9008A11FA218A155630E2008A11FE2055
:101C40008A152030E2008A11FE208A152030E20039
:101C50008A11FE208A153008CE002F08CD008A1187
:101C600026218A1583143408D4003308D30032089F
:101C7000D2003108D1007A08D8007908D700780856
:101C8000D6007708D5008A1109248A157708CD0077
:101C90007808CE007908CF007A08D000D4004F0829
:101CA000D3004E08D2004D08D1004008D8003F08AC
:101CB000D7003E08D6003D08D5008A1120238A159A
:101CC0007A08C4007908C3007808C2007708C10008
:101CD0000130E3000C30E4008A11DB208A15523019
:101CE000E2008A11FE208A153D30E2008A11FE20B2
:101CF0008A15893084004408D8004308D700420878
:101D0000D6004108D5000230D9008A11FA218A157F
:101D10002030E2008A11FE208A15552F0230E300A0
:101D20000130E4008A11DB208A153008CE002F082C
:101D3000CD008A1126218A1583143408D400330873
:101D4000D3003208D2003108D1007A08D8007908CF
:101D5000D7007808D6007708D5008A1109248A159B
:101D60007708CD007808CE007908CF007A08D00037
:101D70005630E2008A11FE208A153D30E2008A11B9
:101D8000FE208A15893084005008D8004F08D700FB
:101D90004E08D6004D08D5000130D9008A11FA212D
:101DA0008A156D30E2008A11FE208A155630E20055
:101DB0008A11FE208A152030E2008A11FE208A1541
:101DC0003008CE002F08CD008A1126218A158314F1
:101DD0003408D4003308D3003208D2003108D100CF
:101DE0007A08D8007908D7007808D6007708D50097
:101DF0008A1109248A157708CD007808CE00790861
:101E0000CF007A08D0004008E5003F08E4003E0813
:101E1000E3003D08E200E901E8017A30E70088309C
:101E2000E6008A1143218A155008D4004F08D300D8
:101E30004E08D2004D08D1007A08D8007908D700A2
:101E40007808D6007708D5008A1120238A157A08E9
:101E5000C4007908C3007808C2007708C1000130C7
:101E6000E3000C30E4008A11DB208A155230E200D6
:101E70008A11FE208A153D30E2008A11FE208A1563
:101E8000893084004408D8004308D7004208D600AF
:101E90004108D5000230D9008A11FA218A15203074
:101EA000E2008A11FE208A155D285D285D28630006
:02400E00713F00
:00000001FF
;PIC16F877A
